:100000000C9464000C948C000C948C000C948C0068
:100010000C948C000C948C000C948C000C94FF05B8
:100020000C948C000C948C000C948C000C948C0020
:100030000C948C000C948C000C948C000C948C0010
:100040000C9413090C948C000C94010B0C943D0B34
:100050000C948C000C948C000C948C000C948C00F0
:100060000C94E3070C948C000000000700020100D0
:100070000003040600000000000000000102040864
:100080001020408001020408102001020408102002
:10009000040404040404040402020202020203032E
:1000A00003030303000000002300260029000000D2
:1000B0000000250028002B0000000000240027007D
:1000C0002A0062020007F80B11241FBECFEFD8E010
:1000D000DEBFCDBF11E0A0E0B1E0E8E1FBE102C08E
:1000E00005900D92A43FB107D9F713E0A4EFB1E05A
:1000F00001C01D92A13CB107E1F710E0C8ECD0E0CF
:1001000004C02297FE010E94860DC23CD107C9F7A8
:100110000E94410D0C948A0D0C9400001F93CF9304
:10012000DF9380913C0212E1189FC00111248C5092
:100130009E4F0E946A058823C1F0C0913C02D0E026
:100140001C9FC0011D9F900D112463E08C509E4F99
:100150000E94E204FE01EE0FFF1FE35CFD4F69E326
:1001600070E00E944E0D7183608380913C0290E0AC
:10017000EC01CC0FDD1FC35CDD4F22E1289FF001B5
:10018000299FF00D1124EC50FE4F60817181828116
:10019000938129E330E040E050E00E94620D398312
:1001A0002883DF91CF911F9108950F931F9340E80B
:1001B00055E260E070E08AE193E00E94780B86E30C
:1001C00092E00E940A03882369F060E071E08AE10E
:1001D00093E00E949F0C80E392E00E940A03811149
:1001E00008C014C067E171E08AE193E00E949F0CAF
:1001F000FFCF6DE271E08AE193E00E949F0C8AE2FA
:1002000092E00E940A03811108C076C062E471E0A6
:100210008AE193E00E949F0CFFCF68E571E08AE1DC
:1002200093E00E949F0C6EE671E08AE193E00E94E9
:10023000800C60E170E086E392E00E946F0360E171
:1002400070E080E392E00E946F0360E170E08AE278
:1002500092E00E946F036EEC71E08AE193E00E94ED
:100260009F0C6FE771E08AE193E00E94800C60E0F0
:1002700070E086E392E00E94EB0260E070E080E3D1
:1002800092E00E94EB0260E070E08AE292E00E945D
:10029000EB026EEC71E08AE193E00E949F0C0E94F9
:1002A0005D098B019C01055B1F4F2F4F3F4F009352
:1002B00043021093440220934502309346028B017F
:1002C0009C010D581F4F2F4F3F4F00934702109333
:1002D00048022093490230934A02DC01CB01855643
:1002E0009F4FAF4FBF4F80934B0290934C02A09310
:1002F0004D02B0934E0207C06CE971E08AE193E0D1
:100300000E949F0CFFCF1F910F9108951F93CF93D1
:10031000DF93CDE3D2E010E04AE050E0612F8AE1C4
:1003200093E00E943A0D62EB71E08AE193E00E9453
:10033000800C699179914AE050E08AE193E00E9453
:100340001C0D64EB71E08AE193E00E94800C66EB87
:1003500071E08AE193E00E94800C1F5F1330E1F6A8
:100360008AE193E0DF91CF911F910C94890CEF9279
:10037000FF920F931F93CF93DF9361E086E392E0A8
:100380000E94D5037C0161E080E392E00E94D503E6
:100390008C0161E08AE292E00E94D503EC016AEBF5
:1003A00071E08AE193E00E94800C4AE050E0B701DE
:1003B0008AE193E00E941C0D64EB71E08AE193E016
:1003C0000E94800C4AE050E0B8018AE193E00E946C
:1003D0001C0D64EB71E08AE193E00E94800C4AE01E
:1003E00050E0BE018AE193E00E94220D6AEC71E0C8
:1003F0008AE193E0DF91CF911F910F91FF90EF90F1
:100400000C949F0C8F929F92AF92BF92CF92DF92EB
:10041000EF92FF920F931F93CF93DF9303E412E0C9
:100420004DE3E42E42E0F42EC0E0D0E052E1C52ED0
:10043000DC2E0E945D09F80180809180A280B3804B
:10044000681579058A059B0520F1D501C4018858F6
:100450009F4FAF4FBF4F80839183A283B383C1115E
:1004600006C080913C02823011F40E9486010E94F5
:100470006405D0923C02F70111821082CC9EC0012B
:10048000CD9E900D11246EE870E08C509E4F0E941E
:10049000E50521960C5F1F4FF2E0EF0EF11CC33013
:1004A000D10531F60E948601DF91CF911F910F9106
:1004B000FF90EF90DF90CF90BF90AF909F908F9084
:1004C0000C94B70169E386E392E00E94890269E235
:1004D00080E392E00E94890269E48AE292E00E944D
:1004E000890224E630E04DE06CE084EF91E00E9468
:1004F000EE0324E630E049E068E086E092E00E9406
:10050000EE0324E630E04BE06AE088E192E00C94F0
:10051000EE03FC01608315821282118280E190E07B
:100520009483838308951F93CF93DF93EC01162F59
:100530008881682F772767FD709581E592E00E949A
:10054000E806612F81E592E00E94840681E592E051
:100550000E94FD066881772767FD709542E050E0B4
:1005600081E592E00E94DB0681E592E00E9431067F
:10057000EC0181E592E00E943106382F20E02C2B1F
:100580003D2BC901DF91CF911F9108951F93CF9308
:10059000DF931F92CDB7DEB7162FFC018081682F45
:1005A000772767FD709581E592E049830E94E80610
:1005B000612F81E592E00E9484064981642F81E5E4
:1005C00092E00E94840681E592E00F90DF91CF9146
:1005D0001F910C94FD060F931F93CF93DF93EC01B3
:1005E000162F072F8D81811103C0CE010E940A03AF
:1005F000CE010E944F0319830A834B81412B61E88E
:10060000CE010E94C602CE01DF91CF911F910F91C2
:100610000C945F03CF93DF93EC0181E592E00E949D
:10062000C4066881772767FD709581E592E00E9496
:10063000E806E0915102F09152020190F081E02D24
:100640006AE081E592E0099581E592E00E94FD066D
:100650006881772767FD709541E050E081E592E081
:100660000E94DB0681E592E00E9431068A7099279C
:10067000892B89F081E08D8369817A81CE010E9486
:10068000EB026B817C81CE010E946F03CE010E9440
:100690005F0381E001C080E0DF91CF910895CF93A7
:1006A000DF93EC018D81811103C0CE010E940A030A
:1006B00043E060E8CE01DF91CF910C94C602CF9366
:1006C000DF93EC018D81811103C0CE010E940A03EA
:1006D00040E060E8CE01DF91CF910C94C6020F9309
:1006E0001F93CF93DF93EC01162F072F8D8181117C
:1006F00003C0CE010E940A03CE010E944F031B8358
:100700000C834981412B61E8CE010E94C602CE01D3
:10071000DF91CF911F910F910C945F03CF92DF92E5
:10072000EF92FF92CF93DF93EC018D81811103C093
:10073000CE010E940A03CE010E944F0389819A8153
:10074000009719F0019759F405C06EE070E080E061
:1007500090E009C066E670E080E090E004C063E9E4
:1007600071E080E090E00E9499096EEACE010E945B
:1007700093026C01E12CF12C7601DD24CC246CEA8F
:10078000CE010E949302A0E0B0E0C82AD92AEA2A4A
:10079000FB2ACE010E945F03B601C701DF91CF9112
:1007A000FF90EF90DF90CF9008950F931F93162F37
:1007B0000E948E03112371F0113011F4BC010AC0A4
:1007C000123031F48C0122273327601B710B02C0D9
:1007D00060E070E0CB011F910F910895DC01862F3E
:1007E00090E0FC01E458FF4FE4911496EC931497C9
:1007F00050E0FA01E458FF4FE4911596EC931597F9
:10080000FC01E057FF4F849190E0880F991FFC0195
:10081000E255FF4F6591749116966C931697179653
:100820007C931797FA01E057FF4FE491F0E0EE0F49
:10083000FF1FEC55FF4F459154911A964C931A9710
:100840001B965C931B9788549F4FFC018591949154
:1008500018968C93189719969C931997C901853F00
:1008600021E0920714F084EF91E049E3489F900162
:10087000499F300D1124245E3F4F1D963C932E93CB
:100880001C9708950F931F93CF93DF93EC01E88596
:10089000F98580819C81892B8083EE81FF81908105
:1008A0008C8180958923808384E090E00E94BF0939
:1008B000EE81FF8180819C81892B80838AE090E09A
:1008C0000E94BF09EE81FF8190818C8180958923F0
:1008D0008083E885F98590818C8180958923808348
:1008E0000E946F09605B794B8F4F9F4F6E877F87A8
:1008F000888B998BEA85FB8580819D818923B9F05E
:100900000E946F090E851F852889398906171707E8
:100910002807390778F70BC00E946F090E851F85DD
:10092000288939890617170728073907A0F0EA85AB
:10093000FB8580819D81892379F30E946F092C8535
:100940003D85620F731F811D911D6E877F87888B88
:10095000998B81E001C080E0DF91CF911F910F91D1
:1009600008950F931F93CF93DF93EC010E944204ED
:10097000882339F0EA85FB8580819D81892321F4D4
:100980000FC020E030E018C00E946F090E851F855F
:1009900028893989061717072807390758F7F1CF2B
:1009A0000E946F092C853D85255031094E855F8554
:1009B000241B350B260F371FC901DF91CF911F91E3
:1009C0000F9108958F929F92AF92BF92CF92DF9234
:1009D000EF92FF920F931F93CF93DF93CDB7DEB7C4
:1009E0007C01862ECDB6DEB68DB79EB7E2E06E9F57
:1009F0008019910911240FB6F8949EBF0FBE8DBFC8
:100A00000DB71EB70F5F1F4FEDB7FEB712821182F1
:100A1000912C3DE1A32EB12C31C0C7010E94B1043D
:100A2000009729F48A94F701848595851AC0992046
:100A300079F0692D462F50E0FA013197EE0FFF1F34
:100A4000E00FF11F2081318128173907D0F001C054
:100A500060E0F801E60FF11DE60FF11D9183808340
:100A60009394981458F4892F992786958695B50103
:100A7000681B790B80E090E00E949909981468F255
:100A80000AC0FA01EE0FFF1FE00FF11F3183208330
:100A90006150F9F2CFCF882D8E7FF801E80FF11D5C
:100AA000808191810FB6F894DEBE0FBECDBEDF917E
:100AB000CF911F910F91FF90EF90DF90CF90BF905B
:100AC000AF909F908F900895E0E7F0E080818D7F58
:100AD00080830895CF92DF92EF92FF920F931F933E
:100AE000CF93DF93EC010E946F090E851F85288943
:100AF0003989061717072807390718F40E94640573
:100B000026C0EA85FB8580819D81892301F50E94AD
:100B100064050E946F094C855D856A01E12CF12C0A
:100B20000E851F8528893989C01AD10AE20AF30A7D
:100B30002DE0C21AD108E108F108C60ED71EE81E42
:100B4000F91EC882D982EA82FB8281E001C080E07E
:100B5000DF91CF911F910F91FF90EF90DF90CF9099
:100B600008950E946405E6EBF0E080818F7D80832C
:100B700082E08093B00084E08093B1001092B200D4
:100B800008950F931F93CF93DF93EC018B010E9485
:100B9000B1051093500200934F02CE0196958795B0
:100BA0009695879501978F3F910519F010F08FEF7B
:100BB00090E08093B3008091700082608093700019
:100BC000DF91CF911F910F910895CF93DF9300D0C4
:100BD000CDB7DEB769837A830E94420469817A8146
:100BE000882341F088E190E00F900F90DF91CF9142
:100BF0000C94C1050F900F90DF91CF9108951F9233
:100C00000F920FB60F9211242F933F934F935F9340
:100C10006F937F938F939F93AF93BF93EF93FF93C4
:100C2000E0914F02F0915002309709F00995FF9141
:100C3000EF91BF91AF919F918F917F916F915F9154
:100C40004F913F912F910F900FBE0F901F901895CD
:100C50002091810230E080918202281B3109C90174
:100C600008958091820290918102891750F4E82FB3
:100C7000F0E0ED57FD4F208130E08F5F80938202DE
:100C800002C02FEF3FEFC9010895E09182028091E9
:100C90008102E81730F4F0E0ED57FD4F208130E09D
:100CA00002C02FEF3FEFC90108950895CF92DF9260
:100CB000EF92FF920F931F93CF93DF937C01CB01B1
:100CC0008A0120915D02222391F0EB016B01C40E99
:100CD000D51E09C06991D701ED91FC910190F08179
:100CE000E02DC7010995CC15DD05A1F703C0642FE0
:100CF0000E94BA07C801DF91CF911F910F91FF9019
:100D0000EF90DF90CF900895CF93DF931F92CDB7F0
:100D1000DEB7698320915D022223D1F020915E022B
:100D2000203240F021E030E0FC013383228320E0D8
:100D300030E015C080915F02E82FF0E0E05AFD4FEF
:100D4000998190838F5F80935F0280935E0205C0DC
:100D500061E0CE0101960E94BA0721E030E0C901AE
:100D60000F90DF91CF910895FC011382128248EE1B
:100D700053E060E070E0448355836683778387EDBA
:100D800091E09183808308951092820210928102F3
:100D900010925F0210925E020C940407862F41327B
:100DA00008F040E263E872E00E942207109282029B
:100DB00080938102089521E00C94CE0681E0809317
:100DC0005D026093800210925F0210925E020895AD
:100DD0000C94DE060F93062F21E040915E0260E640
:100DE00072E0809180020E94670710925F02109269
:100DF0005E0210925D020F91089561E00C94EA0684
:100E000081E592E00C94B4061092AC0281E08093EC
:100E1000AA021092A90261E082E10E942E0A61E01A
:100E200083E10E942E0AE9EBF0E080818E7F8083CF
:100E300080818D7F808388E48093B80085E48093EF
:100E4000BC000895413208F03FC09091AC0291116E
:100E5000FCCF91E09093AC022093AA022FEF209355
:100E6000A3021092A802242F21502093A70290934E
:100E7000AB029091AB02880F892B8093AB028091DB
:100E8000A902813041F41092A9028091AB028093B3
:100E9000BB0085EC01C085EE8093BC008091AC0264
:100EA0008130E1F38091A802841710F44091A802E8
:100EB0002DEA32E0FB01D90102C08D9181938A2F86
:100EC000821B8417D0F301C040E0842F08950F9354
:100ED000413208F046C09091AC029111FCCF92E0F3
:100EE0009093AC020093AA029FEF9093A3021092FA
:100EF000A8024093A702FB016DEA72E0DB0102C089
:100F000091919D939A2F961B9417D0F31092AB0258
:100F10009091AB02880F892B8093AB028091A9023C
:100F2000813041F41092A9028091AB028093BB0002
:100F300085EC01C085EE8093BC00222321F08091D6
:100F4000AC028230E1F38091A3028F3F61F0809187
:100F5000A302803251F08091A302803341F483E0F8
:100F600007C081E005C080E003C082E001C084E0EA
:100F70000F910895613298F42091AC02243089F4E5
:100F80006093A502FC018DEC92E0DC0102C021918E
:100F90002D932A2F281B2617D0F380E0089581E097
:100FA000089582E0089585ED8093BC008091BC0097
:100FB00084FDFCCF1092AC02089585EC8093BC00B8
:100FC0001092AC0208951F920F920FB60F92112447
:100FD0002F933F934F935F936F937F938F939F9341
:100FE000AF93BF93EF93FF938091B900887F8036D2
:100FF00009F49FC058F5883209F45BC090F4803141
:1010000009F452C038F4882309F4F8C0883009F094
:10101000F9C04AC0883109F44CC0803209F0F2C0EE
:101020005CC0803409F46BC038F4803309F455C0D7
:10103000883309F0E7C054C0803509F454C08835BE
:1010400009F462C0883409F0DDC0DAC0883909F4D7
:10105000CBC0A8F4883709F46CC038F4883609F49A
:1010600068C0803709F0CEC064C0883809F4BCC0BD
:10107000803909F464C0803809F0C4C060C0803B86
:1010800009F48AC038F4803A09F46BC0883A09F050
:10109000B9C082C0803C09F4ABC0883C09F4A8C048
:1010A000883B09F0AFC08DC08091AB028093BB003C
:1010B00012C09091A8028091A702981788F580919C
:1010C000A802E82FF0E0E355FD4F90819093BB001C
:1010D0008F5F8093A80285EC88C08093A30290C0A4
:1010E0008093A30256C08091A8029091BB00E82F84
:1010F000F0E0E355FD4F90838F5F8093A8029091BD
:10110000A8028091A7026DC08091A8029091BB00B7
:10111000E82FF0E0E355FD4F90838F5F8093A802A6
:101120008091AA0281116CC081E08093A90284EAB7
:1011300060C083E08093AC021092A402CCCF809177
:10114000A402803208F050C08091A4029091BB00AC
:10115000E82FF0E0EF50FD4F90838F5F8093A40263
:10116000BACF8091A402803230F4E091A402F0E082
:10117000EF50FD4F10820E94D3076091A402E091CE
:10118000ED02F091EE0270E081EF92E0099510928D
:10119000A4020E94DD0736C084E08093AC02109266
:1011A000A6021092A502E091EF02F091F0020995DB
:1011B0008091A502811105C081E08093A502109263
:1011C000CD028091A602E82FF0E0E353FD4F90811D
:1011D0009093BB008F5F8093A6029091A6028091AE
:1011E000A502981708F477CF85E88093BC000AC061
:1011F00085EC8093BC001092AC0204C01092A30254
:101200000E94D307FF91EF91BF91AF919F918F9172
:101210007F916F915F914F913F912F910F900FBEF2
:101220000F901F9018951F920F920FB60F921124D6
:101230002F933F938F939F93AF93BF93809111030D
:1012400090911203A0911303B091140330911903EC
:10125000232F2D5F2D3720F40196A11DB11D05C050
:10126000232F2A570296A11DB11D209319038093A5
:10127000110390931203A0931303B093140380916E
:10128000150390911603A0911703B09118030196CE
:10129000A11DB11D8093150390931603A09317030E
:1012A000B0931803BF91AF919F918F913F912F9170
:1012B0000F900FBE0F901F9018950F931F938FB72D
:1012C000F8940091110310911203209113033091AF
:1012D00014038FBFB801C9011F910F9108950F9397
:1012E0001F939FB7F8940091150310911603209156
:1012F00017033091180386B5A89B06C08F3F21F0D5
:101300000F5F1F4F2F4F3F4F9FBF322F212F102FA7
:101310000027080F111D211D311D42E0000F111F74
:10132000221F331F4A95D1F7B801C9011F910F91B0
:101330000895CF92DF92EF92FF92CF93DF936B01EC
:101340007C010E946F09EB010EC00E946F096C1BAB
:101350007D0B683E734038F081E0C81AD108E1087F
:10136000F108C851DC4FC114D104E104F10469F75C
:10137000DF91CF91FF90EF90DF90CF90089501978C
:1013800039F0880F991F880F991F02970197F1F77D
:101390000895789484B5826084BD84B5816084BDED
:1013A00085B5826085BD85B5816085BDEEE6F0E0DE
:1013B000808181608083E1E8F0E01082808182603A
:1013C0008083808181608083E0E8F0E080818160BB
:1013D0008083E1EBF0E0808184608083E0EBF0E0EB
:1013E000808181608083EAE7F0E08081846080838F
:1013F0008081826080838081816080838081806839
:1014000080831092C1000895833069F028F4813000
:10141000A1F0823011F514C08630B1F08730C1F0F0
:101420008430D9F404C0809180008F7703C080910C
:1014300080008F7D80938000089584B58F7702C0EF
:1014400084B58F7D84BD08958091B0008F7703C0EF
:101450008091B0008F7D8093B00008950F931F930B
:10146000CF93DF931F92CDB7DEB7282F30E0F9017D
:10147000E859FF4F8491F901E458FF4F1491F901A5
:10148000E057FF4F04910023D1F0882321F06983B6
:101490000E94040A6981E02FF0E0EE0FFF1FE25581
:1014A000FF4F85919491DC019FB7F8948C91611165
:1014B00003C01095812301C0812B8C939FBF0F9097
:1014C000DF91CF911F910F910895FC01848595853F
:1014D000FC01E05CFF4F20813181FC01EE5BFF4F9E
:1014E00080819181281B390B2F733327C9010895FF
:1014F000FC0184859585FC01E05CFF4F40815181B2
:10150000FC01EE5BFF4F208131814217530741F010
:101510000190F081E02DE80FF91F208130E002C03A
:101520002FEF3FEFC9010895FC0184859585FC01EB
:10153000E05CFF4F40815181FC01EE5BFF4F208159
:1015400031814217530781F0A081B181A80FB91FE3
:101550008C91208131812F5F3F4F2F73332731834F
:101560002083282F30E002C02FEF3FEFC9010895FC
:10157000FC0186859785FC01E05CFF4FDC01AE5BDA
:10158000BF4F408151812D913C91119742175307D4
:10159000C1F70895CF93DF93FC0186859785DC0121
:1015A000A05CBF4F2D913C9111972F5F3F4F2F7340
:1015B0003327EC01CE5BDF4F488159812417350773
:1015C000D9F30D90BC91A02DA80FB91F6C93A685DF
:1015D000B785A05CBF4F11963C932E93A689B7891F
:1015E0002C9181E090E0058C02C0880F991F0A942D
:1015F000E2F7282B2C9381E090E0DF91CF910895C2
:1016000008951F920F920FB60F9211242F933F93BC
:101610004F938F939F93EF93FF934091C6008091D8
:10162000BD039091BE0301968F7399272091BF034C
:101630003091C0038217930759F0E091BD03F091F8
:10164000BE03E358FC4F40839093BE038093BD03D9
:10165000FF91EF919F918F914F913F912F910F901B
:101660000FBE0F901F9018958AE193E00E94650AC3
:10167000892B11F00C94000B08951F920F920FB656
:101680000F9211242F933F938F939F93EF93FF9388
:101690002091790330917A0380917B0390917C03B0
:1016A0002817390731F48091C1008F7D8093C100E4
:1016B00014C0E0917B03F0917C03E75CFC4F208138
:1016C00080917B0390917C0301968F73992790936F
:1016D0007C0380937B032093C600FF91EF919F9141
:1016E0008F913F912F910F900FBE0F901F901895E3
:1016F000CF92DF92EF92FF92CF93DF93EC016A01DA
:101700007B01411581EE580761057105F9F0EC89FF
:10171000FD8981E090E00E8C02C0880F991F0A9429
:10172000E2F7808360E079E08DE390E0A701960125
:101730000E94620D21503109410951095695479582
:1017400037952795211580E1380798F0EC89FD89B8
:10175000108260E874E88EE190E0A70196010E9493
:10176000620D215031094109510956954795379528
:101770002795E889F9893083EA89FB892083EE89F6
:10178000FF89408181E090E09C010A8C02C0220F19
:10179000331F0A94E2F7422B4083EE89FF89408190
:1017A0009C010B8C02C0220F331F0A94E2F7422BDC
:1017B0004083EE89FF8940819C010C8C02C0220F7E
:1017C000331F0A94E2F7422B4083EE89FF89208180
:1017D0000D8C02C0880F991F0A94E2F7809582232E
:1017E0008083DF91CF91FF90EF90DF90CF900895AD
:1017F00010921D0310921C0388EE93E0A0E0B0E06D
:1018000080931E0390931F03A0932003B0932103A2
:1018100087EE91E090931B0380931A038DE793E08A
:10182000909327038093260389E393E09093290301
:101830008093280385EC90E090932B0380932A03F8
:1018400084EC90E090932D0380932C0380EC90E047
:1018500090932F0380932E0381EC90E090933103BB
:101860008093300386EC90E09093330380933203AF
:1018700084E08093340383E08093350387E0809392
:10188000360385E08093370381E080933803089521
:10189000CF92DF92EF92FF920F931F93CF93DF933C
:1018A0006C01EB017A01E60EF71E00E010E00BC0C0
:1018B0006991D601ED91FC910190F081E02DC60176
:1018C0000995080F191FCE15DF0591F7C801DF91A3
:1018D000CF911F910F91FF90EF90DF90CF900895DF
:1018E000DB010D900020E9F7AD0141505109461B85
:1018F000570BDC01ED91FC910280F381E02D0994FE
:101900000C94700CDC01ED91FC910190F081E02DC4
:1019100009940F931F93CF93DF93EC016DE00E9426
:10192000820C8C016AE0CE010E94820C9C01200F87
:10193000311FC901DF91CF911F910F9108950F932E
:101940001F93CF93DF93EC010E94700C8C01CE01AA
:101950000E94890C9801280F391FC901DF91CF918E
:101960001F910F9108954F925F926F927F929F9275
:10197000AF92BF92CF92DF92EF92FF920F931F939D
:10198000CF93DF93CDB7DEB7A1970FB6F894DEBF44
:101990000FBECDBF5C016A017B01922E19A281E0CE
:1019A000821710F08AE0982E8E010F5D1F4F492C90
:1019B000512C612C712CC701B601A30192010E9428
:1019C000620D8C2D929E80191124015011098A30CC
:1019D00014F4805D01C0895CF801808369017A019B
:1019E000C114D104E104F10431F7B801C5010E942A
:1019F000700CA1960FB6F894DEBF0FBECDBFDF917D
:101A0000CF911F910F91FF90EF90DF90CF90BF90FB
:101A1000AF909F907F906F905F904F9008952115A9
:101A2000310541F4DC01ED91FC910190F081E02D54
:101A3000642F09940C94B30C9A01AB0160E070E040
:101A40000C940F0D0F931F93CF93DF93EC019A012A
:101A5000AB0160E070E00E940F0D8C01CE010E948E
:101A6000890C9801280F391FC901DF91CF911F916F
:101A70000F9108959A01462F50E060E070E00C94B9
:101A80000F0D0E94C9090E94D500C4E3DBE00E944B
:101A900002022097E1F30E94340BF9CFAA1BBB1B73
:101AA00051E107C0AA1FBB1FA617B70710F0A61B5E
:101AB000B70B881F991F5A95A9F780959095BC017F
:101AC000CD010895A1E21A2EAA1BBB1BFD010DC07A
:101AD000AA1FBB1FEE1FFF1FA217B307E407F507DE
:101AE00020F0A21BB30BE40BF50B661F771F881FBA
:101AF000991F1A9469F760957095809590959B0150
:101B0000AC01BD01CF010895EE0FFF1F0590F491C8
:081B1000E02D0994F894FFCFC9
:101B1800466F756E642053656E736F72203120288E
:101B2800466C6F6174290053656E736F72203120A3
:101B38004C6F6164204661696C75726500466F750B
:101B48006E642053656E736F72203220284C6F7755
:101B5800290053656E736F722032204C6F616420C8
:101B68004661696C75726500466F756E64205365D1
:101B78006E736F722033202848696768290053659F
:101B88007474696E67204761696E202E2E2E00538B
:101B9800657474696E6720496E74656772617469EB
:101BA8006F6E2054696D65202E2E2E0053656E735E
:101BB8006F722033204C6F6164204661696C7572C6
:101BC80065003D002C00636D20004D6561737572E2
:101BD800696E67202E2E2E2028002E2E2E20646F50
:101BE8006E6500000000008406560628063106458A
:101BF80006550600000000CA0A480C650A940A78CF
:041C08000AB80A000C
:00000001FF
