:100000000C9464000C948C000C948C000C948C0068
:100010000C948C000C948C000C948C000C94CE04EA
:100020000C948C000C948C000C948C000C948C0020
:100030000C948C000C948C000C948C000C948C0010
:100040000C94E2070C948C000C94D0090C940C0ACC
:100050000C948C000C948C000C948C000C948C00F0
:100060000C94B2060C948C00000000070002010002
:100070000003040600000000000000000102040864
:100080001020408001020408102001020408102002
:10009000040404040404040402020202020203032E
:1000A00003030303000000002300260029000000D2
:1000B0000000250028002B0000000000240027007D
:1000C0002A00DC01CF05C70A11241FBECFEFD8E0FC
:1000D000DEBFCDBF11E0A0E0B1E0E8E2F8E102C090
:1000E00005900D92A232B107D9F713E0A2E2B1E078
:1000F00001C01D92A730B107E1F710E0C8ECD0E0D5
:1001000004C02297FE010E940E0CC23CD107C9F721
:100110000E94DD0B0C94120C0C9400001F93CF93E3
:10012000DF9380917C0112E1189FC00111248E5D44
:100130009E4F0E9439048823D9F080917C0190E081
:10014000EC01CC0FDD1FC358DE4F189FF001199F43
:10015000F00D1124EE5DFE4F6081718182819381EB
:1001600029E330E040E050E00E94EA0B3983288325
:10017000DF91CF911F9108950F931F9340E855E2AF
:1001800060E070E080E692E00E94470A86E791E036
:100190000E948C0280E791E00E948C028AE691E046
:1001A0000E948C0260E170E086E791E00E94F1021B
:1001B00060E170E080E791E00E94F10260E170E0B0
:1001C0008AE691E00E94F10260E070E086E791E04B
:1001D0000E946D0260E070E080E791E00E946D0295
:1001E00060E070E08AE691E00E946D020E942C08B7
:1001F0008B019C01055B1F4F2F4F3F4F00938501E3
:100200001093860120938701309388018B019C0114
:100210000D581F4F2F4F3F4F0093890110938A01B4
:1002200020938B0130938C018B019C0105561F4F4D
:100230002F4F3F4F00938D0110938E0120938F011C
:1002400030939001DC01CB018D539F4FAF4FBF4FD7
:100250008093910190939201A0939301B0939401A4
:100260001F910F910895CF93DF93CFE7D1E069916C
:1002700079914AE050E080E692E00E94D70B60E07E
:1002800071E080E692E00E944F0B81E0C538D8070C
:1002900071F761E086E791E00E9457034AE050E081
:1002A000BC0180E692E00E94D70B60E071E080E63E
:1002B00092E00E944F0B61E080E791E00E945703BB
:1002C0004AE050E0BC0180E692E00E94D70B60E07B
:1002D00071E080E692E00E944F0B61E08AE691E0D7
:1002E0000E9457034AE050E0BC0180E692E00E9481
:1002F000D70B80E692E0DF91CF910C94580B8F9250
:100300009F92AF92BF92CF92DF92EF92FF920F93A4
:100310001F93CF93DF9305E811E03DE7E32E31E033
:10032000F32EC0E0D0E042E1C42EDC2E0E942C0867
:10033000F80180809180A280B380681579058A05D4
:100340009B0520F1D501C40180569F4FAF4FBF4F91
:1003500080839183A283B383C11106C080917C0105
:10036000833011F40E9433010E943304D0927C0147
:10037000F70111821082CC9EC001CD9E900D1124F8
:100380006EE870E08E5D9E4F0E94B40421960C5F73
:100390001F4FF2E0EF0EF11CC430D10531F6DF91B2
:1003A000CF911F910F91FF90EF90DF90CF90BF9072
:1003B000AF909F908F90089569E486E791E00E9446
:1003C0000B0269E280E791E00E940B0269E38AE692
:1003D00091E00E940B0224E630E04FE06EE082E202
:1003E00091E00E94700324E630E049E068E084E395
:1003F00091E00E94700324E630E04BE06AE086E47E
:1004000091E00E94700324E630E04DE06CE088E566
:1004100091E00C947003FC016083158212821182BA
:1004200080E190E09483838308951F93CF93DF93BB
:10043000EC01162F8881682F772767FD709587E973
:1004400091E00E94B705612F87E991E00E94530572
:1004500087E991E00E94CC056881772767FD709558
:1004600042E050E087E991E00E94AA0587E991E027
:100470000E940005EC0187E991E00E940005382FF9
:1004800020E02C2B3D2BC901DF91CF911F910895C6
:100490001F93CF93DF931F92CDB7DEB7162FFC01CA
:1004A0008081682F772767FD709587E991E0498300
:1004B0000E94B705612F87E991E00E9453054981A9
:1004C000642F87E991E00E94530587E991E00F903E
:1004D000DF91CF911F910C94CC050F931F93CF9375
:1004E000DF93EC01162F072F8D81811103C0CE0100
:1004F0000E948C02CE010E94D10219830A834B8193
:10050000412B61E8CE010E944802CE01DF91CF91DC
:100510001F910F910C94E102CF93DF93EC0187E9D7
:1005200091E00E9493056881772767FD709587E9C0
:1005300091E00E94B705E0919701F0919801019038
:10054000F081E02D6AE087E991E0099587E991E083
:100550000E94CC056881772767FD709541E050E0E7
:1005600087E991E00E94AA0587E991E00E940005D1
:100570008A709927892B89F081E08D8369817A813E
:10058000CE010E946D026B817C81CE010E94F1023E
:10059000CE010E94E10281E001C080E0DF91CF91B5
:1005A0000895CF93DF93EC018D81811103C0CE01BB
:1005B0000E948C0243E060E8CE01DF91CF910C9461
:1005C0004802CF93DF93EC018D81811103C0CE01EE
:1005D0000E948C0240E060E8CE01DF91CF910C9444
:1005E00048020F931F93CF93DF93EC01162F072F31
:1005F0008D81811103C0CE010E948C02CE010E9428
:10060000D1021B830C834981412B61E8CE010E94FA
:100610004802CE01DF91CF911F910F910C94E1021E
:10062000CF92DF92EF92FF92CF93DF93EC018D8117
:10063000811103C0CE010E948C02CE010E94D10222
:1006400089819A81009719F0019759F405C06EE0ED
:1006500070E080E090E009C066E670E080E090E045
:1006600004C063E971E080E090E00E9468086EEAEF
:10067000CE010E9415026C01E12CF12C7601DD24E3
:10068000CC246CEACE010E941502A0E0B0E0C82A9A
:10069000D92AEA2AFB2ACE010E94E102B601C7014B
:1006A000DF91CF91FF90EF90DF90CF9008950F935F
:1006B0001F93162F0E941003112371F0113011F4B3
:1006C000BC010AC0123031F48C0122273327601B91
:1006D000710B02C060E070E0CB011F910F91089593
:1006E000DC01862F90E0FC01E458FF4FE491149662
:1006F000EC93149750E0FA01E458FF4FE4911596FB
:10070000EC931597FC01E057FF4F849190E0880F20
:10071000991FFC01E255FF4F6591749116966C93F9
:10072000169717967C931797FA01E057FF4FE491BD
:10073000F0E0EE0FFF1FEC55FF4F459154911A96D4
:100740004C931A971B965C931B9788549F4FFC0100
:100750008591949118968C93189719969C93199754
:10076000C901853F21E0920714F084EF91E049E34D
:10077000489F9001499F300D1124245E3F4F1D96E4
:100780003C932E931C9708950F931F93CF93DF9361
:10079000EC01E885F98580819C81892B8083EE813D
:1007A000FF8190818C8180958923808384E090E013
:1007B0000E948E08EE81FF8180819C81892B80833D
:1007C0008AE090E00E948E08EE81FF8190818C810A
:1007D000809589238083E885F98590818C81809537
:1007E000892380830E943E08605B794B8F4F9F4F27
:1007F0006E877F87888B998BEA85FB8580819D81B9
:100800008923B9F00E943E080E851F852889398901
:10081000061717072807390778F70BC00E943E080C
:100820000E851F8528893989061717072807390774
:10083000A0F0EA85FB8580819D81892379F30E9460
:100840003E082C853D85620F731F811D911D6E87AB
:100850007F87888B998B81E001C080E0DF91CF9109
:100860001F910F910895E0E7F0E080818D7F8083F4
:100870000895CF92DF92EF92FF920F931F93CF9341
:10088000DF93EC010E943E080E851F852889398977
:10089000061717072807390718F40E94330426C0E3
:1008A000EA85FB8580819D81892301F50E943304BF
:1008B0000E943E084C855D856A01E12CF12C0E8575
:1008C0001F8528893989C01AD10AE20AF30A2DE066
:1008D000C21AD108E108F108C60ED71EE81EF91E9B
:1008E000C882D982EA82FB8281E001C080E0DF9188
:1008F000CF911F910F91FF90EF90DF90CF900895CF
:100900000E943304E6EBF0E080818F7D808382E0FB
:100910008093B00084E08093B1001092B2000895FB
:100920000F931F93CF93DF93EC018B010E94800400
:100930001093960100939501CE0196958795969513
:10094000879501978F3F910519F010F08FEF90E098
:100950008093B30080917000826080937000DF917B
:10096000CF911F910F910895CF93DF9300D0CDB712
:10097000DEB769837A830E94C40369817A81882300
:1009800041F088E190E00F900F90DF91CF910C94AF
:1009900090040F900F90DF91CF9108951F920F92C6
:1009A0000FB60F9211242F933F934F935F936F9342
:1009B0007F938F939F93AF93BF93EF93FF93E091B8
:1009C0009501F0919601309709F00995FF91EF910B
:1009D000BF91AF919F918F917F916F915F914F9157
:1009E0003F912F910F900FBE0F901F90189520915F
:1009F000C70130E08091C801281B3109C901089561
:100A00008091C8019091C701891750F4E82FF0E058
:100A1000E753FE4F208130E08F5F8093C80102C012
:100A20002FEF3FEFC9010895E091C8018091C70100
:100A3000E81730F4F0E0E753FE4F208130E002C0C9
:100A40002FEF3FEFC90108950895CF92DF92EF9203
:100A5000FF920F931F93CF93DF937C01CB018A0109
:100A60002091A301222391F0EB016B01C40ED51E4E
:100A700009C06991D701ED91FC910190F081E02DC1
:100A8000C7010995CC15DD05A1F703C0642F0E94AD
:100A90008906C801DF91CF911F910F91FF90EF90D0
:100AA000DF90CF900895CF93DF931F92CDB7DEB73D
:100AB00069832091A3012223D1F02091A401203247
:100AC00040F021E030E0FC013383228320E030E07D
:100AD00015C08091A501E82FF0E0EA55FE4F9981FD
:100AE00090838F5F8093A5018093A40105C061E08E
:100AF000CE0101960E94890621E030E0C9010F90E5
:100B0000DF91CF910895FC011382128248EE53E0E9
:100B100060E070E0448355836683778386E091E0EC
:100B20009183808308951092C8011092C70110929A
:100B3000A5011092A4010C94D305862F413208F030
:100B400040E269EC71E00E94F1051092C8018093C7
:100B5000C701089521E00C949D0581E08093A301D5
:100B60006093C6011092A5011092A40108950C94FF
:100B7000AD050F93062F21E04091A40166EA71E0D4
:100B80008091C6010E9436061092A5011092A40120
:100B90001092A3010F91089561E00C94B90587E9C3
:100BA00091E00C9483051092F20181E08093F001B2
:100BB0001092EF0161E082E10E94FD0861E083E1B3
:100BC0000E94FD08E9EBF0E080818E7F80838081C8
:100BD0008D7F808388E48093B80085E48093BC0097
:100BE0000895413208F03FC09091F2019111FCCF7D
:100BF00091E09093F2012093F0012FEF2093E9010F
:100C00001092EE01242F21502093ED019093F101D9
:100C10009091F101880F892B8093F1018091EF0170
:100C2000813041F41092EF018091F1018093BB007B
:100C300085EC01C085EE8093BC008091F20181308B
:100C4000E1F38091EE01841710F44091EE0123EF5F
:100C500031E0FB01D90102C08D9181938A2F821B63
:100C60008417D0F301C040E0842F08950F934132E0
:100C700008F046C09091F2019111FCCF92E0909360
:100C8000F2010093F0019FEF9093E9011092EE01C1
:100C90004093ED01FB0163EF71E0DB0102C0919134
:100CA0009D939A2F961B9417D0F31092F101909177
:100CB000F101880F892B8093F1018091EF01813040
:100CC00041F41092EF018091F1018093BB0085EC1B
:100CD00001C085EE8093BC00222321F08091F201B7
:100CE0008230E1F38091E9018F3F61F08091E90169
:100CF000803251F08091E901803341F483E007C0F4
:100D000081E005C080E003C082E001C084E00F9173
:100D10000895613298F42091F201243089F46093AF
:100D2000EB01FC0183E192E0DC0102C021912D93F3
:100D30002A2F281B2617D0F380E0089581E008951C
:100D400082E0089585ED8093BC008091BC0084FD15
:100D5000FCCF1092F201089585EC8093BC001092B4
:100D6000F20108951F920F920FB60F9211242F9344
:100D70003F934F935F936F937F938F939F93AF9323
:100D8000BF93EF93FF938091B900887F803609F479
:100D90009FC058F5883209F45BC090F4803109F4A3
:100DA00052C038F4882309F4F8C0883009F0F9C03B
:100DB0004AC0883109F44CC0803209F0F2C05CC0EE
:100DC000803409F46BC038F4803309F455C088339B
:100DD00009F0E7C054C0803509F454C0883509F4DF
:100DE00062C0883409F0DDC0DAC0883909F4CBC0AC
:100DF000A8F4883709F46CC038F4883609F468C060
:100E0000803709F0CEC064C0883809F4BCC080398E
:100E100009F464C0803809F0C4C060C0803B09F4A4
:100E20008AC038F4803A09F46BC0883A09F0B9C036
:100E300082C0803C09F4ABC0883C09F4A8C0883B60
:100E400009F0AFC08DC08091F1018093BB0012C04A
:100E50009091EE018091ED01981788F58091EE0157
:100E6000E82FF0E0ED50FE4F90819093BB008F5F34
:100E70008093EE0185EC88C08093E90190C0809357
:100E8000E90156C08091EE019091BB00E82FF0E09F
:100E9000ED50FE4F90838F5F8093EE019091EE01B5
:100EA0008091ED016DC08091EE019091BB00E82F23
:100EB000F0E0ED50FE4F90838F5F8093EE018091C4
:100EC000F00181116CC081E08093EF0184EA60C081
:100ED00083E08093F2011092EA01CCCF8091EA0185
:100EE000803208F050C08091EA019091BB00E82F59
:100EF000F0E0E95CFD4F90838F5F8093EA01BACF09
:100F00008091EA01803230F4E091EA01F0E0E95C9E
:100F1000FD4F10820E94A2066091EA01E091330227
:100F2000F091340270E087E392E009951092EA01B3
:100F30000E94AC0636C084E08093F2011092EC016E
:100F40001092EB01E0913502F09136020995809103
:100F5000EB01811105C081E08093EB011092130237
:100F60008091EC01E82FF0E0ED5EFD4F90819093D1
:100F7000BB008F5F8093EC019091EC018091EB01BD
:100F8000981708F477CF85E88093BC000AC085ECF9
:100F90008093BC001092F20104C01092E9010E94FB
:100FA000A206FF91EF91BF91AF919F918F917F9199
:100FB0006F915F914F913F912F910F900FBE0F90C6
:100FC0001F9018951F920F920FB60F9211242F9316
:100FD0003F938F939F93AF93BF93809157029091CC
:100FE0005802A0915902B0915A0230915F02232F0A
:100FF0002D5F2D3720F40196A11DB11D05C0232FB3
:101000002A570296A11DB11D20935F0280935702BB
:1010100090935802A0935902B0935A0280915B02B8
:1010200090915C02A0915D02B0915E020196A11DBB
:10103000B11D80935B0290935C02A0935D02B0931C
:101040005E02BF91AF919F918F913F912F910F9031
:101050000FBE0F901F9018950F931F938FB7F894A2
:1010600000915702109158022091590230915A0272
:101070008FBFB801C9011F910F9108950F931F935E
:101080009FB7F89400915B0210915C0220915D0281
:1010900030915E0286B5A89B06C08F3F21F00F5F9E
:1010A0001F4F2F4F3F4F9FBF322F212F102F002751
:1010B000080F111D211D311D42E0000F111F221FBD
:1010C000331F4A95D1F7B801C9011F910F910895B7
:1010D000CF92DF92EF92FF92CF93DF936B017C016F
:1010E0000E943E08EB010EC00E943E086C1B7D0B67
:1010F000683E734038F081E0C81AD108E108F10871
:10110000C851DC4FC114D104E104F10469F7DF9147
:10111000CF91FF90EF90DF90CF900895019739F035
:10112000880F991F880F991F02970197F1F708956B
:10113000789484B5826084BD84B5816084BD85B5B2
:10114000826085BD85B5816085BDEEE6F0E0808179
:1011500081608083E1E8F0E010828081826080839A
:10116000808181608083E0E8F0E08081816080831D
:10117000E1EBF0E0808184608083E0EBF0E080814F
:1011800081608083EAE7F0E08081846080838081F1
:101190008260808380818160808380818068808399
:1011A0001092C1000895833069F028F48130A1F0D5
:1011B000823011F514C08630B1F08730C1F0843030
:1011C000D9F404C0809180008F7703C080918000A3
:1011D0008F7D80938000089584B58F7702C084B599
:1011E0008F7D84BD08958091B0008F7703C080917A
:1011F000B0008F7D8093B00008950F931F93CF931D
:10120000DF931F92CDB7DEB7282F30E0F901E85900
:10121000FF4F8491F901E458FF4F1491F901E05711
:10122000FF4F04910023D1F0882321F069830E94AD
:10123000D3086981E02FF0E0EE0FFF1FE255FF4F6A
:1012400085919491DC019FB7F8948C91611103C052
:101250001095812301C0812B8C939FBF0F90DF914C
:10126000CF911F910F910895FC0184859585FC0114
:10127000E05CFF4F20813181FC01EE5BFF4F8081FC
:101280009181281B390B2F733327C9010895FC0165
:1012900084859585FC01E05CFF4F40815181FC0114
:1012A000EE5BFF4F208131814217530741F00190DF
:1012B000F081E02DE80FF91F208130E002C02FEF10
:1012C0003FEFC9010895FC0184859585FC01E05C30
:1012D000FF4F40815181FC01EE5BFF4F2081318146
:1012E0004217530781F0A081B181A80FB91F8C91DB
:1012F000208131812F5F3F4F2F733327318320832C
:10130000282F30E002C02FEF3FEFC9010895FC0104
:1013100086859785FC01E05CFF4FDC01AE5BBF4F2B
:10132000408151812D913C91119742175307C1F78C
:101330000895CF93DF93FC0186859785DC01A05C3F
:10134000BF4F2D913C9111972F5F3F4F2F73332744
:10135000EC01CE5BDF4F4881598124173507D9F363
:101360000D90BC91A02DA80FB91F6C93A685B785D1
:10137000A05CBF4F11963C932E93A689B7892C9100
:1013800081E090E0058C02C0880F991F0A94E2F773
:10139000282B2C9381E090E0DF91CF910895089560
:1013A0001F920F920FB60F9211242F933F934F93DA
:1013B0008F939F93EF93FF934091C6008091030317
:1013C0009091040301968F73992720910503309122
:1013D00006038217930759F0E0910303F091040389
:1013E000ED53FD4F40839093040380930303FF91DB
:1013F000EF919F918F914F913F912F910F900FBE41
:101400000F901F90189580E692E00E943409892B76
:1014100011F00C94CF0908951F920F920FB60F92FE
:1014200011242F933F938F939F93EF93FF932091DA
:10143000BF023091C0028091C1029091C202281770
:10144000390731F48091C1008F7D8093C10014C0B1
:10145000E091C102F091C202E158FD4F20818091DC
:10146000C1029091C20201968F7399279093C20294
:101470008093C1022093C600FF91EF919F918F91BD
:101480003F912F910F900FBE0F901F901895CF9204
:10149000DF92EF92FF92CF93DF93EC016A017B0121
:1014A000411581EE580761057105F9F0EC89FD8958
:1014B00081E090E00E8C02C0880F991F0A94E2F739
:1014C000808360E079E08DE390E0A70196010E94BF
:1014D000EA0B215031094109510956954795379535
:1014E0002795211580E1380798F0EC89FD89108255
:1014F00060E874E88EE190E0A70196010E94EA0B93
:10150000215031094109510956954795379527953D
:10151000E889F9893083EA89FB892083EE89FF898C
:10152000408181E090E09C010A8C02C0220F331FB1
:101530000A94E2F7422B4083EE89FF8940819C01A7
:101540000B8C02C0220F331F0A94E2F7422B408318
:10155000EE89FF8940819C010C8C02C0220F331F51
:101560000A94E2F7422B4083EE89FF8920810D8C9B
:1015700002C0880F991F0A94E2F780958223808326
:10158000DF91CF91FF90EF90DF90CF900895109270
:1015900063021092620288EE93E0A0E0B0E08093D4
:1015A000640290936502A0936602B093670286E19D
:1015B00091E0909361028093600283EC92E09093BB
:1015C0006D0280936C028FE792E090936F0280939C
:1015D0006E0285EC90E0909371028093700284EC2F
:1015E00090E0909373028093720280EC90E090936D
:1015F00075028093740281EC90E09093770280935F
:10160000760286EC90E0909379028093780284E0F1
:1016100080937A0283E080937B0287E080937C0250
:1016200085E080937D0281E080937E020895CF92D1
:10163000DF92EF92FF920F931F93CF93DF936C0192
:10164000EB017A01E60EF71E00E010E00BC0699195
:10165000D601ED91FC910190F081E02DC601099534
:10166000080F191FCE15DF0591F7C801DF91CF9143
:101670001F910F91FF90EF90DF90CF900895DB01C5
:101680000D900020E9F7AD0141505109461B570B61
:10169000DC01ED91FC910280F381E02D09940C9422
:1016A0003F0BDC01ED91FC910190F081E02D09945C
:1016B0000F931F93CF93DF93EC016DE00E94510BCA
:1016C0008C016AE0CE010E94510B9C01200F311F5A
:1016D000C901DF91CF911F910F9108954F925F92B1
:1016E0006F927F929F92AF92BF92CF92DF92EF92D2
:1016F000FF920F931F93CF93DF93CDB7DEB7A197E0
:101700000FB6F894DEBF0FBECDBF5C016A017B014E
:10171000922E19A281E0821710F08AE0982E8E0195
:101720000F5D1F4F492C512C612C712CC701B60144
:10173000A30192010E94EA0B8C2D929E8019112424
:10174000015011098A3014F4805D01C0895CF801F0
:10175000808369017A01C114D104E104F10431F7F5
:10176000B801C5010E943F0BA1960FB6F894DEBFE9
:101770000FBECDBFDF91CF911F910F91FF90EF90E2
:10178000DF90CF90BF90AF909F907F906F905F90D1
:101790004F9008952115310541F4DC01ED91FC9144
:1017A0000190F081E02D642F09940C946E0B9A0146
:1017B000AB0160E070E00C94CA0B0E9498080E9494
:1017C000BC00C3E0DAE00E947F012097E1F30E94B1
:1017D000030AF9CFA1E21A2EAA1BBB1BFD010DC003
:1017E000AA1FBB1FEE1FFF1FA217B307E407F507D1
:1017F00020F0A21BB30BE40BF50B661F771F881FAD
:10180000991F1A9469F760957095809590959B0142
:10181000AC01BD01CF010895EE0FFF1F0590F491BB
:08182000E02D0994F894FFCFBC
:101828002C000000000053052505F70400051405E9
:101838002405000000009909170B340963094709BA
:0218480087090E
:00000001FF
